:100000000C942A000C943F000C943F000C943F0089
:100010000C943F000C943F000C943F000C943F0064
:100020000C943F000C943F000C943F000C943F0054
:100030000C943F000C943F000C943F000C943F0044
:100040000C943F000C943F000C943F000C943F0034
:100050000C943F0011241FBECFE5D8E0DEBFCDBF1A
:1000600010E0A0E6B0E0EAEAF1E002C005900D92EF
:10007000AE37B107D9F70E94B4000C94D3000C94AA
:10008000000092B39F7B92BB982F907F95BB92B359
:10009000906192BBE9EFF0E03197F1F700C000000A
:1000A00092B39F7E92BB8295807F85BB82B3806135
:1000B00082BB89EF90E00197F1F700C0000082B3A6
:1000C0008F7E82BB08958FEF84BB81BB82B38F7E0E
:1000D00082BB83E30E94410082E30E94410088E2E8
:1000E0000E9441008EE00E94410081E00E94410098
:1000F00083EF91E00197F1F700C00000089592B3FB
:10010000906492BB982F907F95BB92B3906192BB05
:10011000E9EFF0E03197F1F700C0000092B39F7E65
:1001200092BB8295807F85BB82B3806182BB89EF61
:1001300090E00197F1F700C0000082B38F7E82BB90
:1001400008950F931F93CF938C01C0E003C00E94CA
:100150007F00CF5FF801EC0FF11D80818111F7CF97
:10016000CF911F910F9108950E94630080EC0E942F
:10017000410080E690E00E94A1002FE38DE093E033
:10018000215080409040E1F700C000008CE10E94C7
:1001900041002FED83E994E0215080409040E1F749
:0A01A00000C00000F3CFF894FFCF79
:1001AA0020416D696E205361666F757420414C69F8
:0E01BA002C2057656C636F6D65204156520016
:00000001FF
